{
  "contractName": "MemoPad",
  "abi": [
    {
      "constant": true,
      "inputs": [],
      "name": "title",
      "outputs": [
        {
          "name": "",
          "type": "string"
        }
      ],
      "payable": false,
      "stateMutability": "view",
      "type": "function"
    },
    {
      "constant": true,
      "inputs": [],
      "name": "memo",
      "outputs": [
        {
          "name": "",
          "type": "string"
        }
      ],
      "payable": false,
      "stateMutability": "view",
      "type": "function"
    },
    {
      "constant": true,
      "inputs": [],
      "name": "author",
      "outputs": [
        {
          "name": "",
          "type": "address"
        }
      ],
      "payable": false,
      "stateMutability": "view",
      "type": "function"
    },
    {
      "inputs": [],
      "payable": false,
      "stateMutability": "nonpayable",
      "type": "constructor"
    },
    {
      "constant": false,
      "inputs": [
        {
          "name": "_title",
          "type": "string"
        },
        {
          "name": "_memo",
          "type": "string"
        }
      ],
      "name": "Post",
      "outputs": [
        {
          "name": "",
          "type": "bool"
        }
      ],
      "payable": false,
      "stateMutability": "nonpayable",
      "type": "function"
    }
  ],
  "bytecode": "0x608060405234801561001057600080fd5b506040805190810160405280600a81526020017f4669727374204d656d6f000000000000000000000000000000000000000000008152506000908051906020019061005c9291906100ef565b506040805190810160405280600b81526020017f48656c6c6f2054524f4e21000000000000000000000000000000000000000000815250600190805190602001906100a89291906100ef565b5033600260006101000a81548173ffffffffffffffffffffffffffffffffffffffff021916908373ffffffffffffffffffffffffffffffffffffffff160217905550610194565b828054600181600116156101000203166002900490600052602060002090601f016020900481019282601f1061013057805160ff191683800117855561015e565b8280016001018555821561015e579182015b8281111561015d578251825591602001919060010190610142565b5b50905061016b919061016f565b5090565b61019191905b8082111561018d576000816000905550600101610175565b5090565b90565b610553806101a36000396000f300608060405260043610610062576000357c0100000000000000000000000000000000000000000000000000000000900463ffffffff1680634a79d50c1461006757806358c3b870146100f7578063a6c3e6b914610187578063c5837fec146101de575b600080fd5b34801561007357600080fd5b5061007c6102a5565b6040518080602001828103825283818151815260200191508051906020019080838360005b838110156100bc5780820151818401526020810190506100a1565b50505050905090810190601f1680156100e95780820380516001836020036101000a031916815260200191505b509250505060405180910390f35b34801561010357600080fd5b5061010c610343565b6040518080602001828103825283818151815260200191508051906020019080838360005b8381101561014c578082015181840152602081019050610131565b50505050905090810190601f1680156101795780820380516001836020036101000a031916815260200191505b509250505060405180910390f35b34801561019357600080fd5b5061019c6103e1565b604051808273ffffffffffffffffffffffffffffffffffffffff1673ffffffffffffffffffffffffffffffffffffffff16815260200191505060405180910390f35b3480156101ea57600080fd5b5061028b600480360381019080803590602001908201803590602001908080601f0160208091040260200160405190810160405280939291908181526020018383808284378201915050505050509192919290803590602001908201803590602001908080601f0160208091040260200160405190810160405280939291908181526020018383808284378201915050505050509192919290505050610407565b604051808215151515815260200191505060405180910390f35b60008054600181600116156101000203166002900480601f01602080910402602001604051908101604052809291908181526020018280546001816001161561010002031660029004801561033b5780601f106103105761010080835404028352916020019161033b565b820191906000526020600020905b81548152906001019060200180831161031e57829003601f168201915b505050505081565b60018054600181600116156101000203166002900480601f0160208091040260200160405190810160405280929190818152602001828054600181600116156101000203166002900480156103d95780601f106103ae576101008083540402835291602001916103d9565b820191906000526020600020905b8154815290600101906020018083116103bc57829003601f168201915b505050505081565b600260009054906101000a900473ffffffffffffffffffffffffffffffffffffffff1681565b6000826000908051906020019061041f929190610482565b508160019080519060200190610436929190610482565b5033600260006101000a81548173ffffffffffffffffffffffffffffffffffffffff021916908373ffffffffffffffffffffffffffffffffffffffff1602179055506001905092915050565b828054600181600116156101000203166002900490600052602060002090601f016020900481019282601f106104c357805160ff19168380011785556104f1565b828001600101855582156104f1579182015b828111156104f05782518255916020019190600101906104d5565b5b5090506104fe9190610502565b5090565b61052491905b80821115610520576000816000905550600101610508565b5090565b905600a165627a7a723058207dd3924f2ca2dab1765b2c772ced489008abe4b018056548db02b46708d436a50029",
  "source": "pragma solidity ^0.4.23;\n\ncontract MemoPad {\n    constructor() public {\n        title = \"First Memo\";\n        memo = \"Hello TRON!\";\n        author = msg.sender;\n    }\n\n    string public title;\n    string public memo;\n    address public author;\n\n    function Post(string _title, string _memo) public returns (bool) {\n        title = _title;\n        memo = _memo;\n        author = msg.sender;\n        return true;\n    }\n}\n",
  "sourcePath": "/home/spc/project/tron-react-app/contracts/MemoPad.sol",
  "compiler": {
    "name": "solc",
    "version": "0.4.24-develop.2018.8.28+commit.3ba0cdec.mod.Emscripten.clang"
  },
  "schemaVersion": "2.0.1",
  "updatedAt": "2019-01-08T09:12:44.762Z"
}